:100000000C94EF000C9417010C9417010C94170139
:100010000C9417010C9417010C9417010C942E0AE0
:100020000C9417010C9417010C9417010C941701F0
:100030000C9417010C9417010C9417010C941701E0
:100040000C94C5080C9417010C9417010C9417011B
:100050000C9417010C9417010C9417010C941701C0
:100060000C940F090C94170100407A10F35A00A069
:10007000724E18090010A5D4E80000E87648170071
:1000800000E40B54020000CA9A3B000000E1F505B1
:10009000000080969800000040420F000000A086FB
:1000A00001000000102700000000E803000000002D
:1000B0006400000000000A000000000001000000D1
:1000C00000002C76D888DC674F0823DFC1DFAE59EB
:1000D000E1B1B796E5E3E453C63AE651997696E87E
:1000E000E6C28426EB898C9B62ED407C6FFCEFBC02
:1000F0009C9F40F2BAA56FA5F490055A2AF75C932D
:100100006B6CF9676DC11BFCE0E40D47FEF520E662
:10011000B500D0ED902E0300943577050080841E45
:10012000080000204E0A000000C80C333333330FA0
:10013000986E12831141EF8D2114893BE65516CF3D
:10014000FEE6DB18D1844B381BF77C1D901DA4BB49
:10015000E424203284725E228100C9F124ECA1E5FE
:100160003D27000000080002010000030407000012
:10017000000000000000005EBCE2613FDD83C29C25
:100180007E20A3FD1F41009D23BE46DB65F88C1138
:10019000AF32CA57E97400000000240027002A008B
:1001A00000000000230026002900000000002500B8
:1001B00028002B00040404040404040402020202C4
:1001C000020203030303030301020408102040801A
:1001D000010204081020010204081020530A11240F
:1001E0001FBECFEFD8E0DEBFCDBF11E0A0E0B1E091
:1001F000E0E6F0E302C005900D92A43BB107D9F709
:1002000023E0A4EBB1E001C01D92AC33B207E1F7EB
:1002100010E0CFEED0E004C02197FE010E9413163B
:10022000CE3ED107C9F70E94060C0C942E180C94F0
:1002300000008091FF028F3351F018F48F3149F0A4
:1002400008958F3541F08F37D9F78CE008958AE013
:10025000089589E008958BE008959091E202E0917D
:10026000E302F091E402292F209580FF14C0F89456
:100270008281822382838181892B8183A3E2B0E002
:100280001197F1F78281982B9283789487ED90E013
:100290000197F1F70895F894828182238283818106
:1002A000892B8183AFEFB0E01197F1F78281982B12
:1002B000928378948FE090E0EBCFFF920F931F939F
:1002C000CF93DF93F82E062FC8E0D0E011E081E055
:1002D0009F2D912309F480E00E942D01110F219799
:1002E000B1F7011113C0F894E091E302F091E40238
:1002F00091818091E202809598239183E091E302BD
:10030000F091E4029281892382837894DF91CF91E6
:100310001F910F91FF9008950F931F93CF93DF9339
:100320009091E202E091E302F091E402F8942181DD
:10033000392F30952323218378944DE763E070E0D3
:10034000415039F1DB011197F1F720812923C1F3E5
:10035000F8942281232322832181292B21837894DD
:10036000ABE7B7E01197F1F7F894218123232183BC
:10037000A3E1B1E01197F1F720817894E3E6F6E08C
:100380003197F1F7922329F48C3C69F040F48535DC
:1003900079F080E0DF91CF911F910F9108958C3E0D
:1003A00011F0803FB1F760E00E945D0181E0F2CF83
:1003B00060E085E50E945D01C3EFD2E00BEF12E043
:1003C00060E089910E945D010C171D07C9F7EECF0F
:1003D0008091E202E091E302F091E402F8949181CD
:1003E000982B91832281382F309523232283A7E0F5
:1003F000B0E01197F1F7918193239183A3E2B0E0EC
:100400001197F1F790817894EFECF0E03197F1F7E4
:10041000982381E009F480E0089508950895AF924B
:10042000BF92CF92DF92EF92FF920F931F93CF93E1
:10043000DF936C017B018B01040F151FEB015E0143
:10044000AE18BF08C017D10759F06991D601ED91D8
:10045000FC910190F081E02DC6010995892B79F777
:10046000C501DF91CF911F910F91FF90EF90DF9029
:10047000CF90BF90AF900895FC0144815581608179
:10048000718180E193E00C940F02833081F028F4B5
:10049000813099F08230A9F008958730A9F0883032
:1004A000C9F08430B1F4809180008F7D03C08091C9
:1004B00080008F7780938000089584B58F7784BD06
:1004C000089584B58F7DFBCF8091B0008F778093A6
:1004D000B00008958091B0008F7DF9CFCF93DF9366
:1004E000282F30E0F901EE59FE4F8491F901E853CD
:1004F000FE4FD491F901EC54FE4FC491CC23A1F0EE
:1005000081110E944502EC2FF0E0EE0FFF1FE05634
:10051000FE4FA591B491EC91ED2381E090E009F4B8
:1005200080E0DF91CF91089580E090E0FACF1F93B3
:10053000CF93DF93282F30E0F901EE59FE4F8491DD
:10054000F901E853FE4FD491F901EC54FE4FC491E8
:10055000CC23A9F0162F81110E944502EC2FF0E068
:10056000EE0FFF1FE655FE4FA591B4918FB7F8949B
:10057000EC91111108C0D095DE23DC938FBFDF9181
:10058000CF911F910895DE2BF8CFCF93DF9390E0AA
:10059000FC01E853FE4F24918C549E4FFC01849142
:1005A0008823C9F090E0880F991FFC01EA56FE4F9E
:1005B000A591B491FC01E655FE4FC591D49161110E
:1005C0000DC09FB7F8948C91209582238C938881DD
:1005D000282328839FBFDF91CF910895623051F483
:1005E0009FB7F8943C91822F809583238C93E88168
:1005F0002E2BEFCF8FB7F894EC912E2B2C938FBF2F
:10060000EACFCF93DF93EC0161E085E00E94C50261
:10061000209731F460E085E0DF91CF910C94970250
:10062000CF3FD10511F461E0F6CFE7E6F1E0E491C8
:10063000E33029F140F4E130B1F0E230D9F0C038D4
:10064000D1058CF7E7CFE73021F1E83051F1E43004
:10065000B1F780918000806280938000D0938B00FE
:10066000C0938A0004C084B5806884BDC7BDDF9193
:10067000CF91089584B5806284BDC8BDF8CF8091C4
:100680008000806880938000D0938900C0938800A8
:10069000EECF8091B00080688093B000C093B3002B
:1006A000E6CF8091B00080628093B000C093B40028
:1006B000DECF3FB7F8948091920290919302A0917F
:1006C0009402B091950226B5A89B05C02F3F19F062
:1006D0000196A11DB11D3FBFBA2FA92F982F8827C2
:1006E000BC01CD01620F711D811D911D42E0660F9D
:1006F000771F881F991F4A95D1F708958F929F926F
:10070000AF92BF92CF92DF92EF92FF924B015C01CA
:100710000E9459036B017C010E9459036C197D09E9
:100720008E099F09683E734081059105A8F321E079
:10073000821A9108A108B10888EEC80E83E0D81E7D
:10074000E11CF11C81149104A104B10429F7FF906C
:10075000EF90DF90CF90BF90AF909F908F900895D3
:1007600085ED8093BC008091BC0084FDFCCF10928D
:100770009C02089520914A02260F3327331F21320D
:100780003105ECF420919C02FC0190E080E02430E3
:1007900069F082E00895A0914A022191AC01465D82
:1007A0005D4FA40FB52FB11D2C930196861798F3BA
:1007B00080914A02680F60934A0280E0089581E0C8
:1007C00008950895E091A00280919F02E81730F407
:1007D000F0E0E65FFD4F808190E008958FEF9FEF9E
:1007E00008959091A00280919F022FEF3FEF9817FC
:1007F00048F4E92FF0E0E65FFD4F208130E09F5F95
:100800009093A002C901089580919F029091A00247
:10081000891B990B0895CF92DF92EF92FF920F936D
:100820001F93CF93DF937C01CB018A0120910902B2
:10083000222389F0EB016B01C40ED51ECC15DD051A
:1008400069F06991D701ED91FC910190F081E02D63
:10085000C7010995F3CF642F0E94BA03C801DF9145
:10086000CF911F910F91FF90EF90DF90CF9008955F
:10087000CF93DF931F92CDB7DEB769832091090232
:100880002223F9F020919D02203258F021E030E03F
:10089000FC013383228390E080E00F90DF91CF91C1
:1008A000089580919E02E82FF0E0E751FE4F998174
:1008B00090838F5F80939E0280939D0281E090E001
:1008C000ECCF61E0CE0101960E94BA03F7CFCF933F
:1008D000FC01C48121E020930902C093E801109239
:1008E0009E0210929D028385682B86ED92E00E9405
:1008F000380490919D02913208F03FC080919C0293
:100900008111FCCF82E080939C0281E080939B0266
:100910008FEF80936D0210928F0290938E02A9EE5A
:10092000B1E0EEE6F2E080E098132FC01092900262
:1009300080919002CC0FC82BC093900280919A02B4
:10094000813039F510929A02809190028093BB0019
:100950008091BC0083FDF8CF85EC8093BC00809132
:100960009C028230E1F380916D028F3F31F08091E3
:100970006D02803211F080916D0210929E021092F1
:100980009D0210920902CF9108952D9121938F5FBE
:10099000CBCF85EEE2CF089590E080E008952091DE
:1009A000C302211107C021E02093C3029093B40237
:1009B0008093B30208958091A9029091AA02892B95
:1009C000D1F44091D2025091D3026091D40270913F
:1009D000D5028091A5029091A602A091A702B091A4
:1009E000A802481B590B6A0B7B0B81E0483E534021
:1009F0006105710508F480E00895880F991F880F3C
:100A0000991FFC01E854FE4F8091D2029091D302CD
:100A1000A091D402B091D50280839183A283B38345
:100A20000895CF92DF92EF92FF920F931F93FC01F4
:100A3000EE0FFF1FEE0FFF1FE854FE4FC080D18066
:100A4000E280F3800091D2021091D3022091D4026F
:100A50003091D502C016D106E206F30699F00C19C2
:100A60001D092E093F09041715072607370750F0FF
:100A70000E94FD0481E01F910F91FF90EF90DF90A5
:100A8000CF90089580E0F7CFCF92DF92EF92FF9260
:100A90000F931F93CF93DF9385E50E948C018823EA
:100AA00021F060E08EEB0E945D01CBEFD2E08E0181
:100AB00088E0C82ED12CF12CEE24E3940E94E801AA
:100AC0008111FE28EE0C81E0C81AD108B9F7F801AF
:100AD000F1928F01F3E004301F0751F729E0E0E0C5
:100AE000215089F089918E27E82FEF70F0E0EA58C5
:100AF000FE4F9491E82FE295EF70F0E0EA57FE4F39
:100B0000E491E927EDCF81E0909103039E1380E00B
:100B1000DF91CF911F910F91FF90EF90DF90CF90D9
:100B200008958F929F92AF92BF92CF92DF92EF92F1
:100B3000FF920F931F93CF93DF935C01C0911C032F
:100B4000D0911D037E0181E0E81AF108CA0DDB1D7A
:100B5000F7FC22C0CA9090901E038090200307E00B
:100B600010E0D12CB601002E02C0759567950A944D
:100B7000E2F76170882D0E94970261E0892D0E9442
:100B8000970260E0892D0E9497020150110950F7E9
:100B900081E0E81AF108DCCFB0922503A09224038B
:100BA00061E0809122030E94970260E0809122031D
:100BB000DF91CF911F910F91FF90EF90DF90CF9039
:100BC000BF90AF909F908F900C9497029C0143E050
:100BD000359527954A95E1F7E0912403F091250397
:100BE000E20FF31F2081AC014770552781E090E0B0
:100BF00001C0880F4A95EAF7613041F4822B808367
:100C000080912403909125030C9491058095822373
:100C1000F6CF0F931F93CF938C01C62F0E946704CA
:100C20006C2F6460C8010E9467046C2F6B7FC80141
:100C30000E94670483EC90E00197F1F7CF911F9138
:100C40000F9108950F931F93CF93DF938C01D62FAD
:100C5000C42F607F642B0E94090680E1D89FB001F9
:100C600011246C2BC801DF91CF911F910F910C942F
:100C70000906CF93DF93CDB7DEB728970FB6F89468
:100C8000DEBF0FBECDBF88E0E9E0F1E0DE011196E6
:100C900001900D928A95E1F78091180381111AC095
:100CA0008FEF90E0880F991F21E030E02C0F3D1F5F
:100CB000820F931FFC016081606840E080E193E057
:100CC00028960FB6F894DEBF0FBECDBFDF91CF914F
:100CD0000C94220681E0E5CF40E061E080E193E002
:100CE0000E9422068BE39FE10197F1F7089541E00E
:100CF0000E94220681E090E00895CF93C091050301
:100D000085E50E948C01882331F061E0C11160E02B
:100D100084E40E945D0180910503882389F10E948B
:100D2000E8018823E1F30E9444056091FB02809171
:100D3000FC02909104039A3009F443C09B3009F4FB
:100D400042C0993009F4687F90E0982F8827680F97
:100D5000792F711D072E000C880B990B0E944B14E4
:100D600020E030E040E85DE30E94AA146093E401D3
:100D70007093E5018093E6019093E701CF91089588
:100D8000809104038A3099F048F4893061F66EE569
:100D900070E080E090E00E947E03C5CF8B3061F070
:100DA0008C3009F66EEE72E080E090E0F4CF6CEBF0
:100DB00070E080E090E0EFCF67E771E080E090E0E6
:100DC000EACF6C7FC1CF6E7FBFCFFC0101900020C6
:100DD000E9F73197AF01481B590BBC0180E193E063
:100DE0000C940F02109200010E946C068BE391E0BC
:100DF0000E94E5060E9439068CE491E00C94E50619
:100E00000F931F93CF93DF93EC0188819981009713
:100E100059F02A813B812617370730F081E0DF91B6
:100E2000CF911F910F9108958B016F5F7F4F0E94AB
:100E30005A17009759F0998388831B830A832C8162
:100E40003D81232B59F7FC011082E8CF80E0E7CFEA
:100E5000EF92FF920F931F93CF93DF93611571056C
:100E600041F480E0DF91CF911F910F91FF90EF90BF
:100E7000089541155105B1F07B01EC010C811D81F4
:100E8000040F151FB8010E940007882351F3288121
:100E900039818C819D81B701820F931F0E94271891
:100EA0001D830C8381E0DECFCF93DF93EC0188813B
:100EB0009981009711F00E94D116198218821D8223
:100EC0001C821B821A82DF91CF910895EF92FF92CC
:100ED0000F931F93CF93DF93EC017B018A01BA013B
:100EE0000E94000781110BC0CE010E945407CE0161
:100EF000DF91CF911F910F91FF90EF9008951D8387
:100F00000C83B701888199810E942718F0CFFC01DA
:100F1000808191810C94D116EF92FF920F931F93D1
:100F2000CF93DF93CDB7DEB768970FB6F894DEBFE7
:100F30000FBECDBF7C01CB011C8A1B8A1E8A1D8A75
:100F4000188E1F8A4AE08E010F5F1F4FB8010E9462
:100F5000DD11F80101900020E9F73197AF01401B46
:100F6000510BB801CE0143960E9466071A8219827E
:100F70001C821B821E821D826B897C896115710512
:100F800029F04F89588DC8010E94660742E050E061
:100F90006DE571E0C8010E942807811103C0C801F6
:100FA0000E945407F7011182108213821282158267
:100FB000148269817A816115710529F04D815E8104
:100FC000C7010E946607C8010E948707CE014396A9
:100FD0000E948707C70168960FB6F894DEBF0FBE60
:100FE000CDBFDF91CF911F910F91FF90EF900895AA
:100FF000CF92DF92EF92FF920F931F93CF93DF93E5
:10100000CDB7DEB7A7970FB6F894DEBF0FBECDBF42
:1010100081E0809300010E946C06C090E401D090B2
:10102000E501E090E601F090E70120E030E0A90161
:10103000C701B6010E94FA1518160CF0A1C01BA238
:101040001AA21DA21CA21FA21EA28E010F5F1F4F7B
:1010500021E043E0C701B6010E94BF11009709F4E7
:101060008AC0FC0101900020E9F73197AF01481BCD
:10107000590BBC01CE0182960E9466071A82198222
:101080001C821B821E821D824AE050E060E671E0F5
:10109000CE0101960E9466074EA15FA16AA17BA1C5
:1010A000CE0101960E942807811104C0CE0101964D
:1010B0000E94540741E050E06BE671E0CE010196DA
:1010C0000E942807811104C0CE0101960E94540796
:1010D000CE0101960E943C02CE0101960E94870734
:1010E000CE0182960E9487070E943906E091AB02EA
:1010F000F091AC02EE0FFF1FEF5EFE4F6081718139
:10110000CE0182960E948C071A8219821C821B8251
:101110001E821D824AE050E069E771E0CE0101962F
:101120000E9466074EA15FA16AA17BA1CE01019634
:101130000E942807811104C0CE0101960E94540725
:10114000CE0101960E943C02CE0101960E948707C3
:10115000CE0182960E948707A7960FB6F894DEBF4D
:101160000FBECDBFDF91CF911F910F91FF90EF90F8
:10117000DF90CF900895CE0182960E9454077ECFD3
:101180008DE691E00E94E506AFCF1F920F920FB659
:101190000F9211242F933F938F939F93AF93BF93FD
:1011A0008091A1029091A202A091A302B091A40209
:1011B0003091910223E0230F2D3758F50196A11DA0
:1011C000B11D209391028093A1029093A202A0935B
:1011D000A302B093A4028091920290919302A091F5
:1011E0009402B09195020196A11DB11D80939202C7
:1011F00090939302A0939402B0939502BF91AF9104
:101200009F918F913F912F910F900FBE0F901F9044
:10121000189526E8230F0296A11DB11DD2CF1F926B
:101220000F920FB60F9211242F933F934F935F931A
:101230006F937F938F939F93AF93BF93EF93FF939E
:101240008091B900887F803609F44AC0F0F5883271
:1012500009F4A7C018F5803109F49BC0B8F48823BD
:1012600009F4F9C0883009F494C0FF91EF91BF915F
:10127000AF919F918F917F916F915F914F913F912E
:101280002F910F900FBE0F901F901895883109F481
:1012900088C0803251F780936D0214C0803409F405
:1012A0009DC040F48033B9F38833F9F680936D0222
:1012B00085ECB0C0803509F485C0883509F496C046
:1012C000883499F60E94B003D0CF883909F48CC0D5
:1012D00038F5883729F050F4883611F0803729F630
:1012E00083E080939C0210926C0257C0883809F406
:1012F0007BC0803919F0803809F0B7CF80916C023B
:10130000803208F071C0E0916C0281E08E0F809312
:101310006C028091BB00F0E0E45BFD4F80833DC038
:10132000803B39F0E0F4803A09F479C0883A09F05A
:101330009CCF84E080939C0210924B0210924A0250
:10134000E0919802F0919902099580914A028111E9
:101350000FC081E080934A0210922A0209C0803CAB
:1013600009F4A6CF883C09F4A3CF883B09F07DCFD0
:10137000E0914B0281E08E0F80934B02F0E0E65D3E
:10138000FD4F80818093BB0090914B0280914A0277
:1013900029C0809190028093BB0085EC8093BC00B3
:1013A00064CF90918F0280918E02981758F5E0914A
:1013B0008F0281E08E0F80938F02F0E0E259FD4FA3
:1013C0008081E9CFE0918F0281E08E0F80938F02C0
:1013D0008091BB00F0E0E259FD4F808390918F0235
:1013E00080918E029817C8F285E8D8CFE0918F02DD
:1013F00081E08E0F80938F028091BB00F0E0E25974
:10140000FD4F808380919B0281115CCF81E08093AE
:101410009A0284EA8093BC0010929C0226CF85EC4D
:101420008093BC0010929C0280916C02803230F458
:10143000E0916C02F0E0E45BFD4F108260916C0281
:1014400070E0E0919602F09197028CE492E00995A9
:1014500010926C020ACF10926D0234CF1F920F923D
:101460000FB60F9211242F933F934F935F936F9377
:101470007F938F939F93AF93BF93EF93FF93F0E08E
:10148000E0E00995FF91EF91BF91AF919F918F910E
:101490007F916F915F914F913F912F910F900FBE70
:1014A0000F901F901895BF92CF92DF92EF92FF920C
:1014B0000F931F93CF93DF931092D9021092D8020B
:1014C00088EE93E0A0E0B0E08093DA029093DB0234
:1014D000A093DC02B093DD0281E291E09093D70209
:1014E0008093D602EFECF1E0E491E0932A03EEEC76
:1014F000F1E0E491E0932B038BEB91E0FC0124916C
:10150000E22FF0E0EE0FFF1FE655FE4F25913491DC
:1015100030932D0320932C03EAEBF1E0E491F0E00B
:10152000EE0FFF1FE056FE4F2591349130932F03AD
:1015300020932E03FC018491E82FF0E0EE0FFF1FB3
:10154000EA56FE4F85919491909331038093300336
:101550008BE694E6909333038093320382E090E02D
:1015600090931D0380931C038AE090E090931F03E7
:1015700080931E0388E090E09093210380932003E2
:1015800089E090E0909323038093220361E08AE056
:101590000E94C50261E088E00E94C50261E089E026
:1015A0000E94C50260E08AE00E94970260E088E045
:1015B0000E94970260E089E00E94970261E070E07B
:1015C00082E090E00E9419169093250380932403F3
:1015D0000E949105109213031092120383E391E08D
:1015E000909311038093100387E28093140380E1AA
:1015F0008093190382E080931A0310921B0360E02A
:101600000E94C502EAECF1E0E491E093E202E6EB2D
:10161000F1E0E491F0E0EE0FFF1FE056FE4F859100
:1016200094919093E4028093E3021092ED02109261
:10163000EF021092EE021092EC021092EB02109266
:10164000EA021092E9021092E8021092E702109268
:10165000E6021092E50210920E0310920F038CEC3A
:101660000E948C01882321F060E084EB0E945D01E0
:101670000E94E8018093F102C12CD12C7601C39421
:1016800011E0D0910F03D111BCC080EF0E948C01FA
:10169000882309F4B6C0B12CC0E00E94E801082FED
:1016A0000E94E801002371F0882361F010920E037C
:1016B000DF91CF911F910F91FF90EF90DF90CF902E
:1016C000BF900895EC2FE695E695E695F0E03C2F67
:1016D0003770EE51FD4F24A1011181C0811184C0EA
:1016E00080910E038C1709F47CC08C1708F47BC022
:1016F000822F90E0032E02C0959587950A94E2F719
:10170000482F417080FF6FC0D701C60104C0880F09
:10171000991FAA1FBB1F3A95D2F7822B84A3042FCF
:10172000802F0E942D01CF5FC03409F0B6CFB09258
:101730000E03B11002C010930F0380EF0E948C01C2
:10174000882309F4B5CF0E94E801C82F0E94E80160
:10175000CC2311F08111ACCFED2FE695E695E695FF
:10176000F0E0EA5FFC4F808190E02D2F277002C0EF
:10177000959587952A95E2F781700E942D01DF5F8C
:10178000D03409F788E0E6E0F3E0A3EFB2E001909F
:101790000D928A95E1F70E944405882309F488CFC9
:1017A0000E9419018093040385E50E948C0188231F
:1017B00021F060E084EB0E945D010E94E8018093CB
:1017C00005030E9419019091F002981710F480937C
:1017D000F0028091F2028F5F8093F20252CF402F8D
:1017E00093CF41E091CFBC2ED701C60104C0880F32
:1017F000991FAA1FBB1F3A95D2F78095822384A315
:101800008FCF10920E0310920F0352CFCF93DF931E
:1018100000D000D000D0CDB7DEB7789484B5826018
:1018200084BD84B5816084BD85B5826085BD85B584
:10183000816085BD80916E00816080936E00109202
:10184000810080918100826080938100809181007D
:10185000816080938100809180008160809380000E
:101860008091B10084608093B1008091B00081606C
:101870008093B00080917A00846080937A00809198
:101880007A00826080937A0080917A0081608093F0
:101890007A0080917A00806880937A001092C1006B
:1018A00060E083E00E94C50260E084E00E94C5021F
:1018B00061E085E00E94C50261E08BE00E94C50204
:1018C00061E08CE00E94C50262E080E10E94C502F6
:1018D0000E947D061092A00210929F0210929E021A
:1018E00010929D0210929C0281E080939B021092C4
:1018F0009A0261E082E10E94970261E083E10E9426
:1019000097028091B9008E7F8093B9008091B900D1
:101910008D7F8093B90088E48093B80085E480933C
:10192000BC008DE092E090939902809398028EE043
:1019300092E0909397028093960210921503809103
:101940001A03823018F098E09093150380931803DF
:1019500062E370E080E090E00E947E0360911B03F0
:1019600080E193E00E94670468EE73E080E090E01D
:101970000E947E0360E380E193E00E9409060BE48D
:1019800016E4C8010197F1F760E380E193E00E945B
:101990000906C8010197F1F760E380E193E00E9436
:1019A000090683E592E00197F1F760E280E193E0B8
:1019B0000E94090660911503606240E080E193E0B7
:1019C0000E94220684E08093160340E06CE080E1F0
:1019D00093E00E9422060E946C0682E08093170327
:1019E00040E066E080E193E00E94220640E062E091
:1019F00080E193E00E9422068BE39FE10197F1F7DB
:101A000088E080931B0360E080E193E00E9467041C
:101A10000E94F80764E6C62ED12C7CE3472E512C99
:101A2000612C712C11E022242A94312C8FB7F89468
:101A30008090A1029090A202A090A302B090A40274
:101A40008FBF8092D2029092D302A092D402B09221
:101A5000D50244E650E060E070E090E080E00E9453
:101A60001105882309F464C0E0913003F09131033B
:101A7000808190912A03892B8083E0912C03F0913F
:101A80002D03908180912A038095892380838BE0A8
:101A900090E00197F1F7E0912C03F0912D03808104
:101AA00090912A03892B808383E290E00197F1F7DC
:101AB000E0912C03F0912D03908180912A03809571
:101AC00089238083E0913003F091310390818091EC
:101AD0002A03809589238083E0912E03F0912F03C0
:101AE000808190912B03892309F41DC290E080E04E
:101AF000BC0190E080E029E330E040E050E00E944B
:101B0000C9152F313105A4F4232B09F47EC280912D
:101B1000A9029091AA0201969093AA028093A90229
:101B20008092A5029092A602A092A702B092A8026B
:101B300083E00E946E02019709F06CC28091D1028D
:101B4000811168C2F9EC8F169104A104B10408F464
:101B500061C21093D10284E00E946E02019791F459
:101B60008091D00281110EC08091D2029091D30257
:101B7000A091D402B091D502893C9105A105B1058F
:101B800008F099C284E00E946E02892B09F496C283
:101B90008091CE028823B1F040EA5FE060E070E01F
:101BA00083E090E00E941105882361F01092CE023C
:101BB0000E94F807D0920201C092010184E690E0F1
:101BC0000E94CF048091CD028823B1F040E757E115
:101BD00060E070E084E090E00E941105882361F0ED
:101BE0001092CD020E94F807D0920201C09201012A
:101BF00084E690E00E94CF048091CC028823B1F06B
:101C000040ED57E060E070E089E090E00E9411054F
:101C1000882361F01092CC020E94F807D092020152
:101C2000C092010184E690E00E94CF0448EE53E0A8
:101C300060E070E085E090E00E941105882309F4DF
:101C400040C082E480937C0080917A00806480931D
:101C50007A0080917A0086FDFCCF809178002091F7
:101C60007900322F282F81E0293E93E039070CF4C8
:101C700080E08093CA02293EE3E03E0714F5032E7C
:101C8000000C440B550B2854334041095109AAE07C
:101C9000B0E00E948715A30192010E9468155901C6
:101CA000F12CE12C61E0EA14FB040CF060E0C701C8
:101CB0000E94E605FFEFEF1AFF0A2AE0E216F104A0
:101CC00089F740E25EE460E070E086E090E00E9428
:101CD0001105882341F080910001882321F00E94A2
:101CE0007D060E94F8078091CF02882309F46AC01C
:101CF00041E050E060E070E087E090E00E94110574
:101D0000882309F45FC00E94DB04811114C0109283
:101D1000B1021092CF020E94F2061093CD0284E02D
:101D200090E00E94FD048091C202811102C01093D4
:101D3000C2021092CB024091D2025091D302609124
:101D4000D4027091D5028091AD029091AE02A09123
:101D5000AF02B091B002481B590B6A0B7B0BE091AC
:101D6000AB02F091AC02EE0FFF1FEF5EFE4F208141
:101D70003181E0E3E29FC001E39F900D1124092E21
:101D8000000CAA0BBB0B481759076A077B07D0F05A
:101D90001092000189E090E00E94FD041093CC02B3
:101DA0000E946C068DEA91E00E94E5061093B10254
:101DB0001092CF021093C4021092CB0284EF91E0F4
:101DC0000E94CF040091CB02011122C042E350E0F7
:101DD00060E070E088E090E00E9411058823C1F087
:101DE0000E94DB049091C402891741F082E390E0E5
:101DF00090930201809301010E94CF040E94DB04B2
:101E00008093C4020E94DB04811102C01092B102CF
:101E10008091CA02882319F144EF51E060E070E03C
:101E20008AE090E00E9411058823C9F0F12CE12C92
:101E3000B090B20261E0C70181709927B816190607
:101E400009F060E0C7010E94E6059FEFE91AF90A70
:101E5000EAE0EE16F10461F7B126B092B202809189
:101E6000C302882309F4B0C18091D2029091D302B9
:101E7000A091D402B091D5022091B902211180C164
:101E80001093B9028093B5029093B602A093B70263
:101E9000B093B8028091B902882309F492C180916D
:101EA0000101909102010E9401036091C40200238C
:101EB00051F18091D2029091D302A091D402B091BD
:101EC000D5024091C6025091C7026091C80270913C
:101ED000C9024C015D01841A950AA60AB70AB50128
:101EE000A401443F51406105710580F08093C60212
:101EF0009093C702A093C802B093C9026091C50233
:101F000061276093C5028CE00E9497026091CF0226
:101F10008BE00E94970280E090E0892B09F486CD47
:101F20000E9400007FCD0E945903AB01BC0180914B
:101F3000320390913303B0E0A0E08855994EAF4F43
:101F4000BF4F840F951FA61FB71F80933403909334
:101F50003503A0933603B0933703E0912E03F0913D
:101F60002F03808190912B03892381F40E945903D0
:101F7000209134033091350340913603509137035B
:101F8000261737074807590740F7B0CD0E94590375
:101F90002091320330913303620F731F811D911D15
:101FA0006093340370933503809336039093370323
:101FB000E0912E03F0912F03808190912B038923D0
:101FC00081F00E94590320913403309135034091F0
:101FD000360350913703261737074807590740F74C
:101FE00085CD0E9459032091320330913303A9011A
:101FF000455051092091340330913503FA01E21B19
:10200000F30BCF01860F971F73CD1092AA02109287
:10201000A9028ECD83E00E946E02892B09F09BCD30
:102020008091D102882309F496CD8091CF0281114D
:102030003FC08091CE02882389F08091AB029091BD
:10204000AC02019666E070E00E94FF159093AC022E
:102050008093AB0288EC90E00E94CF0410920001C4
:102060000E946C0689E791E00E94E506E091AB02D0
:10207000F091AC02EE0FFF1FEF5EFE4F60817181A9
:10208000CE0101960E948C07CE0101960E943C026F
:10209000CE0101960E9487070E94390684E891E0EC
:1020A0000E94E5061093CE0283E090E00E94FD04BA
:1020B0001092D10250CD1093D0026ACD8091D002FF
:1020C000882309F465CD8091CF02811161CD0E94F2
:1020D000DB04882309F445C08091B102811141C01D
:1020E0008091D2029091D302A091D402B091D502F6
:1020F0008093AD029093AE02A093AF02B093B00272
:102100001093CF021093CB021092CE0210920001D6
:102110000E946C0685E991E00E94E5060E9439065E
:1021200081EA91E00E94E506E091AB02F091AC02F9
:10213000EE0FFF1FEF5EFE4F60817181CE010196B1
:102140000E948C07CE0101960E943C02CE010196AE
:102150000E94870788EE93E00E94CF041092D0027D
:1021600017CD0E94F2061093CD0284E090E00E9409
:10217000FD048091C2028111F1CF1093C202EECF13
:102180004091B5025091B6026091B7027091B802C9
:10219000841B950BA60BB70B4091B3025091B40270
:1021A00070E060E084179507A607B70708F472CEC1
:1021B0001092B9021092C3023092020120920101E2
:1021C00069CE90E080E06FCE8091C202882309F44E
:1021D0006CCE8091C102811113C01093C102809115
:1021E000D2029091D302A091D402B091D5028093F3
:1021F000BD029093BE02A093BF02B093C00255CE21
:102200002091BB023091BC028091BA0221153105A8
:10221000C1F5811106C08CED90E00E94010310937E
:10222000BA028091D2029091D302A091D402B091CF
:10223000D5024091BD025091BE026091BF027091E3
:10224000C0024C015D01841A950AA60AB70AB501BD
:10225000A401483C51056105710508F426CE809320
:10226000BD029093BE02A093BF02B093C002AA2405
:10227000A394B12CB092BC02A092BB021092BA02FD
:1022800014CE2130310591F5811106C090E080E037
:102290000E9401031093BA028091D2029091D3025E
:1022A000A091D402B091D5024091BD025091BE02DE
:1022B0006091BF027091C0024C015D01841A950AC1
:1022C000A60AB70AB501A40142335105610571059B
:1022D00008F4EBCD8093BD029093BE02A093BF02A1
:1022E000B093C00282E0A82EB12CC4CF22303105B9
:1022F000A9F5811106C089EB90E00E9401031093BB
:10230000BA028091D2029091D302A091D402B091EE
:10231000D5024091BD025091BE026091BF02709102
:10232000C0024C015D01841A950AA60AB70AB501DC
:10233000A401443F51406105710508F4B6CD809376
:10234000BD029093BE02A093BF02B093C00283E08F
:1023500090E09093BC028093BB0290CF8111A5CDF9
:1023600090E080E00E9401031092C1021092BC0232
:102370001092BB021092BA021092C20296CDEF9256
:102380000F931F93CF93DF93E80134E047FD34E1CF
:10239000042E000C550B57FF03C051954195510970
:1023A000E32E022F242FAE010E940212CE01DF91F4
:1023B000CF911F910F91EF900895BB274A3031F4D0
:1023C000992322F4BDE2909581959F4F0C94E911D9
:1023D000BB27FB015527AA27880F991FAA1FA417FF
:1023E00010F0A41B83955051B9F7A05DAA3308F0F3
:1023F000A95DA193009779F7B111B1931192CB0127
:102400000C943914A9E0B0E0E8E0F2E10C949815DE
:102410006A01F22EB02E102FFBE3AF2EA01608F4A7
:102420001BE31F5F012F27E0AE014F5F5F4F0E944C
:102430006113BC018981982F9970913009F43FC0D4
:102440009BE2E1FC04C09E2D9170E0FC3AC05E2D41
:102450005071E82FE87083FF46C084E0911101C0FD
:1024600083E0EF2DE81B8F1508F0E0E0D6018E2FFA
:1024700020E2552351F1992329F0D6019C93C601FE
:1024800001966C0196012D5F3F4FE2FE24C08EE461
:10249000D6018C9391E411969C93119712968C938C
:1024A000D9018E2F90E281111BC0E20FF32FF11D95
:1024B00010828EEF9FEF2996ECE00C94B4159DE20C
:1024C000C6CF90E2C4CF2D9381508111FCCFCE0EA8
:1024D000D11CE0E0D0CF8EE6D6018C9391E6DBCF25
:1024E0009D938150E0CF482F447082FF3DC084E02F
:1024F000911101C083E08F1510F4EF2DE81BD60178
:102500008E2F20E2552309F1992329F0D6019C93BF
:10251000C60101966C0196012D5F3F4FE2FE1BC084
:1025200089E4D6018C938EE411968C93119786E4FE
:1025300012968C93D9018E2F90E2882309F4B5CF9F
:102540009D938150FACF2D9381508111FCCFCE0EF7
:10255000D11CE0E0D9CF89E6D6018C938EE61196A6
:102560008C93119786E6E4CF9B0177FF02C030E0A1
:1025700020E0A1E0B0E0911102C0B0E0A0E0F901DC
:102580003196AE0FBF1F8B2C912CBB2009F461C07C
:102590005401EFEFAE1ABE0AAA0DBB1DFA161B06B8
:1025A00019F014F04F2D4A1B511188C0E3FC59C09B
:1025B0007601A42FB0E2A1114FC0C40ED11C992303
:1025C00009F45BC040E0D6011196F60190836D01DD
:1025D000552309F448C0012F060F9A81582F5071D6
:1025E00084FF03C0913309F4015010160CF047C06A
:1025F000093008F008E0EEE2FE2E5B01A01AB108F7
:1026000085019194819491082F3F320729F4D601D6
:10261000FC92F60131966F016217730794F102176D
:1026200013077CF5DB01A21BB30BAA24A394B12CE6
:10263000AC0EBD1EAA0DBB1D11968C912150310907
:10264000D601119628153905F4F0F60180836D0145
:10265000DBCFB12CA12CA0CFF701B1937F01A1500A
:10266000AACF9111B0CFD601942F50E302C05D9351
:1026700091509111FCCFC40ED11C40E0ACCF01E0D1
:10268000BACF80E3DBCF6217730731F4963388F457
:10269000953311F4552369F0F6018083FD01842FF1
:1026A00090E2811108C0A40FB11D1C9290E080E05F
:1026B00002CF81E3F1CF91938150F3CF911183CF7A
:1026C0008ACF283008F027E03327DA01990F311D2F
:1026D00087FD916000966105710539F432602E5FC7
:1026E0003D9330E32A95E1F708959F3F30F080381D
:1026F0007105610509F03C5F3C5F3D93913008F046
:102700008068911DDF93CF931F930F93FF92EF92F9
:10271000192F987F9695E92F96959695E90FFF27A3
:10272000EE53FF4F99273327EE24FF24A701E7013B
:1027300005900894079428F4360FE71EF81E491FE9
:10274000511D660F771F881F991F0694A1F70590EA
:10275000079428F4E70EF81E491F561FC11D770F76
:10276000881F991F661F0694A1F70590079428F407
:10277000F80E491F561FC71FD11D880F991F661FCE
:10278000771F0694A1F70590079420F4490F561F70
:10279000C71FD81F990F661F771F881F0694A9F7B8
:1027A00084911095177041F0D695C7955795479528
:1027B000F794E7941A95C1F7E8E6F0E0689415906D
:1027C000159135916591959105907FE27395E1188A
:1027D000F10A430B560BC90BD009C0F7E10CF11EEF
:1027E000431F561FC91FD01D7EF4703311F48A9504
:1027F000E6CFE894015030F0080F0AF400270217E2
:1028000008F4202F2395022F7A3328F079E37D9363
:102810002A95E9F710C07D932A9589F60694979535
:102820006795379517951794E118F10A430B560BE6
:10283000C90BD00998F023957E9173957A3308F0EF
:1028400070E37C932013B8F77E9170617D9330F034
:10285000839571E37D9370E32A95E1F71124EF905E
:10286000FF900F911F91CF91DF91992787FD909550
:102870000895DC01FC01672F71917723E1F732970E
:1028800004C07C916D9370836291AE17BF07C8F34B
:102890000895E89409C097FB3EF490958095709553
:1028A00061957F4F8F4F9F4F9923A9F0F92F96E99C
:1028B000BB279395F695879577956795B795F11111
:1028C000F8CFFAF4BB0F11F460FF1BC06F5F7F4FAE
:1028D0008F4F9F4F16C0882311F096E911C07723C0
:1028E00021F09EE8872F762F05C0662371F096E8C9
:1028F000862F70E060E02AF09A95660F771F881F98
:10290000DAF7880F9695879597F90895990F00083B
:10291000550FAA0BE0E8FEEF16161706E807F907B1
:10292000C0F012161306E407F50798F0621B730B4C
:10293000840B950B39F40A2661F0232B242B252BCD
:1029400021F408950A2609F4A140A6958FEF811D70
:10295000811D08950E94BD140C942E150E9420150F
:1029600038F00E94271520F0952311F00C941715CC
:102970000C941D1511240C9462150E943F1570F3E0
:10298000959FC1F3950F50E0551F629FF001729F14
:10299000BB27F00DB11D639FAA27F00DB11DAA1F23
:1029A000649F6627B00DA11D661F829F2227B00D70
:1029B000A11D621F739FB00DA11D621F839FA00DFB
:1029C000611D221F749F3327A00D611D231F849F4B
:1029D000600D211D822F762F6A2F11249F575040A2
:1029E0009AF0F1F088234AF0EE0FFF1FBB1F661F1D
:1029F000771F881F91505040A9F79E3F510580F0E6
:102A00000C9417150C9462155F3FE4F3983ED4F3D1
:102A1000869577956795B795F795E7959F5FC1F789
:102A2000FE2B880F911D9695879597F9089597F934
:102A30009F6780E870E060E008959FEF80EC089564
:102A400000240A941616170618060906089500248D
:102A50000A9412161306140605060895092E039407
:102A6000000C11F4882352F0BB0F40F4BF2B11F47B
:102A700060FF04C06F5F7F4F8F4F9F4F089557FDDA
:102A80009058440F551F59F05F3F71F04795880FDC
:102A900097FB991F61F09F3F79F087950895121673
:102AA00013061406551FF2CF4695F1DF08C016161F
:102AB00017061806991FF1CF8695710561050894D0
:102AC0000895E894BB2766277727CB0197F90895E7
:102AD000052E97FB1EF400940E947F1557FD07D02A
:102AE0000E94C91507FC03D04EF40C947F15509535
:102AF0004095309521953F4F4F4F5F4F08959095EA
:102B00008095709561957F4F8F4F9F4F08950E94DC
:102B1000EB15A59F900DB49F900DA49F800D911D66
:102B2000112408952F923F924F925F926F927F925D
:102B30008F929F92AF92BF92CF92DF92EF92FF92CD
:102B40000F931F93CF93DF93CDB7DEB7CA1BDB0B79
:102B50000FB6F894DEBF0FBECDBF09942A8839881E
:102B600048885F846E847D848C849B84AA84B98425
:102B7000C884DF80EE80FD800C811B81AA81B98131
:102B8000CE0FD11D0FB6F894DEBF0FBECDBFED0145
:102B90000895A1E21A2EAA1BBB1BFD010DC0AA1F9E
:102BA000BB1FEE1FFF1FA217B307E407F50720F0B6
:102BB000A21BB30BE40BF50B661F771F881F991F31
:102BC0001A9469F760957095809590959B01AC017A
:102BD000BD01CF010895A29FB001B39FC001A39F83
:102BE000700D811D1124911DB29F700D811D112446
:102BF000911D08950E94861408F48FEF0895AA1B72
:102C0000BB1B51E107C0AA1FBB1FA617B70710F0D7
:102C1000A61BB70B881F991F5A95A9F78095909509
:102C2000BC01CD010895EE0FFF1F0590F491E02D3A
:102C300009940F931F93CF93DF93869F8001879F03
:102C4000100D969F100D1124C8010E943516EC013D
:102C5000009729F0A80170E060E00E942018CE01E2
:102C6000DF91CF911F910F9108950F931F93CF93F1
:102C7000DF938230910510F482E090E0E0913A0316
:102C8000F0913B0330E020E0B0E0A0E0309799F411
:102C90002115310509F44AC0281B390B24303105B0
:102CA000D8F58A819B816115710589F1FB019383B8
:102CB0008283FE0111C04081518102811381481736
:102CC0005907E0F04817590799F4109761F01296E8
:102CD0000C93129713961C933296CF01DF91CF91EC
:102CE0001F910F91089500933A0310933B03F4CF83
:102CF0002115310551F04217530738F0A901DB01C6
:102D00009A01BD01DF01F801C1CFEF01F9CF909326
:102D10003B0380933A03CDCFFE01E20FF31F819373
:102D200091932250310939832883D7CF20913803DA
:102D300030913903232B41F4209105013091060194
:102D4000309339032093380320910301309104011B
:102D50002115310541F42DB73EB74091070150913F
:102D60000801241B350BE0913803F0913903E21779
:102D7000F307A0F42E1B3F0B2817390778F0AC019E
:102D80004E5F5F4F2417350748F04E0F5F1F50937B
:102D9000390340933803819391939FCFF0E0E0E0B3
:102DA0009CCFCF93DF930097E9F0FC013297138219
:102DB0001282A0913A03B0913B03ED0130E020E094
:102DC0001097A1F420813181820F931F2091380345
:102DD000309139032817390709F061C0F09339039E
:102DE000E0933803DF91CF910895EA01CE17DF0712
:102DF000E8F54A815B819E0141155105B1F7E90172
:102E0000FB83EA8349915991C40FD51FEC17FD0745
:102E100061F4808191810296840F951FE901998365
:102E20008883828193819B838A83F0E0E0E012961D
:102E30008D919C9113970097B9F52D913C91119725
:102E4000CD010296820F931F2091380330913903F0
:102E50002817390739F6309751F510923B03109235
:102E60003A03B0933903A0933803BCCFD383C28312
:102E700040815181840F951FC817D90761F44E5FB7
:102E80005F4F88819981480F591F518340838A8100
:102E90009B81938382832115310509F0B0CFF09394
:102EA0003B03E0933A039ECFFD01DC01C0CF1382C8
:102EB0001282D7CFB0E0A0E0E0E6F7E10C949415E1
:102EC0008C01009751F4CB010E9435168C01C8018A
:102ED000CDB7DEB7E0E10C94B015FC01E60FF71FAB
:102EE0009C0122503109E217F30708F49DC0D90173
:102EF000CD91DC911197C617D70798F0C530D10551
:102F000030F3CE0104978617970708F3C61BD70B3B
:102F10002297C193D1936D937C93CF010E94D116D8
:102F2000D6CF5B01AC1ABD0A4C018C0E9D1EA09140
:102F30003A03B0913B03512C412CF12CE12C10971A
:102F400031F580913803909139038815990509F07E
:102F50005CC04616570608F058C080910301909156
:102F60000401009741F48DB79EB74091070150913D
:102F70000801841B950BE817F90708F055C0F0937A
:102F80003903E0933803F90171836083A0CF8D91F9
:102F90009C91119712966C90129713967C901397B0
:102FA000A815B90559F56C0142E0C40ED11CCA142C
:102FB000DB0420F1AC014A195B09DA01129615977E
:102FC00080F06282738251834083D9016D937C9338
:102FD000E114F10471F0D7011396FC93EE9312976C
:102FE00076CF22968C0F9D1FF90191838083F30188
:102FF000EFCFF0933B03E0933A0369CF48165906AD
:1030000008F42C017D01D3019ACFCB010E94351623
:103010007C01009749F0AE01B8010E941718C80161
:103020000E94D116870153CF10E000E050CFFB0182
:10303000DC0102C001900D9241505040D8F7089534
:10304000DC0101C06D9341505040E0F70895FB0151
:10305000DC0101900D920020E1F70895F894FFCF74
:1030600001FF0000003C03800000004000140054F9
:1030700000280064009600C800FA004A0100000021
:103080000038040B04CC04E1030404F103E2030060
:1030900000000077060F02CC04CB044E4F205645AB
:1030A0005353454C2044455445435400506C65618E
:1030B00073652074727920616761696E006D6C00C0
:1030C00054454D503A202020202000430054454DC7
:1030D00050204552524F52210053454C45435445D0
:1030E000443A2000706F7572202D207072657373E2
:1030F0002072656400504C45415345205741495466
:1031000000504F5552494E472E2E2E2000444F4E10
:043110004521000055
:00000001FF
